{
  "_format": "hh-sol-artifact-1",
  "contractName": "TeaNameService",
  "sourceName": "contracts/TeaNameService.sol",
  "abi": [
    {
      "inputs": [
        {
          "internalType": "string",
          "name": "",
          "type": "string"
        }
      ],
      "name": "names",
      "outputs": [
        {
          "internalType": "address",
          "name": "",
          "type": "address"
        }
      ],
      "stateMutability": "view",
      "type": "function"
    },
    {
      "inputs": [
        {
          "internalType": "string",
          "name": "name",
          "type": "string"
        }
      ],
      "name": "registerName",
      "outputs": [],
      "stateMutability": "nonpayable",
      "type": "function"
    },
    {
      "inputs": [
        {
          "internalType": "string",
          "name": "name",
          "type": "string"
        }
      ],
      "name": "resolveName",
      "outputs": [
        {
          "internalType": "address",
          "name": "",
          "type": "address"
        }
      ],
      "stateMutability": "view",
      "type": "function"
    }
  ],
  "bytecode": "0x608060405234801561001057600080fd5b5061053b806100206000396000f3fe608060405234801561001057600080fd5b50600436106100415760003560e01c80630830602b14610046578063822fbf5814610062578063bc19bce514610092575b600080fd5b610060600480360381019061005b91906102c7565b6100c2565b005b61007c600480360381019061007791906102c7565b6101cf565b604051610089919061039f565b60405180910390f35b6100ac60048036038101906100a791906102c7565b610218565b6040516100b9919061039f565b60405180910390f35b600073ffffffffffffffffffffffffffffffffffffffff166000826040516100ea9190610388565b908152602001604051809103902060009054906101000a900473ffffffffffffffffffffffffffffffffffffffff1673ffffffffffffffffffffffffffffffffffffffff161461016f576040517f08c379a0000000000000000000000000000000000000000000000000000000008152600401610166906103ba565b60405180910390fd5b336000826040516101809190610388565b908152602001604051809103902060006101000a81548173ffffffffffffffffffffffffffffffffffffffff021916908373ffffffffffffffffffffffffffffffffffffffff16021790555050565b6000818051602081018201805184825260208301602085012081835280955050505050506000915054906101000a900473ffffffffffffffffffffffffffffffffffffffff1681565b600080826040516102299190610388565b908152602001604051809103902060009054906101000a900473ffffffffffffffffffffffffffffffffffffffff169050919050565b600061027261026d8461040b565b6103da565b90508281526020810184848401111561028a57600080fd5b610295848285610494565b509392505050565b600082601f8301126102ae57600080fd5b81356102be84826020860161025f565b91505092915050565b6000602082840312156102d957600080fd5b600082013567ffffffffffffffff8111156102f357600080fd5b6102ff8482850161029d565b91505092915050565b61031181610462565b82525050565b60006103228261043b565b61032c8185610457565b935061033c8185602086016104a3565b80840191505092915050565b6000610355601783610446565b91507f4e616d6520616c726561647920726567697374657265640000000000000000006000830152602082019050919050565b60006103948284610317565b915081905092915050565b60006020820190506103b46000830184610308565b92915050565b600060208201905081810360008301526103d381610348565b9050919050565b6000604051905081810181811067ffffffffffffffff82111715610401576104006104d6565b5b8060405250919050565b600067ffffffffffffffff821115610426576104256104d6565b5b601f19601f8301169050602081019050919050565b600081519050919050565b600082825260208201905092915050565b600081905092915050565b600061046d82610474565b9050919050565b600073ffffffffffffffffffffffffffffffffffffffff82169050919050565b82818337600083830152505050565b60005b838110156104c15780820151818401526020810190506104a6565b838111156104d0576000848401525b50505050565b7f4e487b7100000000000000000000000000000000000000000000000000000000600052604160045260246000fdfea26469706673582212208d3ddcddc3d17bf55dc932b2b09e421a536200d1b748a4854ccf4fc9bf33ba5a64736f6c63430008000033",
  "linkReferences": {},
  "deployedLinkReferences": {}
}